{"contracts/SharedEscrow.sol":{"SharedEscrow":{"abi":[{"inputs":[{"internalType":"address","name":"admin","type":"address"}],"stateMutability":"nonpayable","type":"constructor"},{"inputs":[],"name":"AccessControlBadConfirmation","type":"error"},{"inputs":[{"internalType":"address","name":"account","type":"address"},{"internalType":"bytes32","name":"neededRole","type":"bytes32"}],"name":"AccessControlUnauthorizedAccount","type":"error"},{"inputs":[],"name":"AlreadyExpired","type":"error"},{"inputs":[],"name":"EnforcedPause","type":"error"},{"inputs":[],"name":"ExpectedPause","type":"error"},{"inputs":[],"name":"InvalidAddress","type":"error"},{"inputs":[],"name":"InvalidAmount","type":"error"},{"inputs":[],"name":"InvalidExpiry","type":"error"},{"inputs":[],"name":"InvalidRecipientHash","type":"error"},{"inputs":[],"name":"NotYetExpired","type":"error"},{"inputs":[],"name":"ReentrancyGuardReentrantCall","type":"error"},{"inputs":[{"internalType":"address","name":"token","type":"address"}],"name":"SafeERC20FailedOperation","type":"error"},{"inputs":[],"name":"TransferExists","type":"error"},{"inputs":[],"name":"TransferNotPending","type":"error"},{"anonymous":false,"inputs":[{"indexed":false,"internalType":"address","name":"account","type":"address"}],"name":"Paused","type":"event"},{"anonymous":false,"inputs":[{"indexed":true,"internalType":"bytes32","name":"role","type":"bytes32"},{"indexed":true,"internalType":"bytes32","name":"previousAdminRole","type":"bytes32"},{"indexed":true,"internalType":"bytes32","name":"newAdminRole","type":"bytes32"}],"name":"RoleAdminChanged","type":"event"},{"anonymous":false,"inputs":[{"indexed":true,"internalType":"bytes32","name":"role","type":"bytes32"},{"indexed":true,"internalType":"address","name":"account","type":"address"},{"indexed":true,"internalType":"address","name":"sender","type":"address"}],"name":"RoleGranted","type":"event"},{"anonymous":false,"inputs":[{"indexed":true,"internalType":"bytes32","name":"role","type":"bytes32"},{"indexed":true,"internalType":"address","name":"account","type":"address"},{"indexed":true,"internalType":"address","name":"sender","type":"address"}],"name":"RoleRevoked","type":"event"},{"anonymous":false,"inputs":[{"indexed":true,"internalType":"bytes32","name":"transferId","type":"bytes32"},{"indexed":true,"internalType":"address","name":"recipient","type":"address"}],"name":"TransferClaimed","type":"event"},{"anonymous":false,"inputs":[{"indexed":true,"internalType":"bytes32","name":"transferId","type":"bytes32"},{"indexed":true,"internalType":"address","name":"sender","type":"address"},{"indexed":true,"internalType":"bytes32","name":"recipientHash","type":"bytes32"},{"indexed":false,"internalType":"address","name":"token","type":"address"},{"indexed":false,"internalType":"uint96","name":"amount","type":"uint96"},{"indexed":false,"internalType":"uint40","name":"expiry","type":"uint40"}],"name":"TransferCreated","type":"event"},{"anonymous":false,"inputs":[{"indexed":true,"internalType":"bytes32","name":"transferId","type":"bytes32"}],"name":"TransferExpired","type":"event"},{"anonymous":false,"inputs":[{"indexed":true,"internalType":"bytes32","name":"transferId","type":"bytes32"},{"indexed":true,"internalType":"address","name":"refundAddress","type":"address"}],"name":"TransferRefunded","type":"event"},{"anonymous":false,"inputs":[{"indexed":false,"internalType":"address","name":"account","type":"address"}],"name":"Unpaused","type":"event"},{"inputs":[],"name":"DEFAULT_ADMIN_ROLE","outputs":[{"internalType":"bytes32","name":"","type":"bytes32"}],"stateMutability":"view","type":"function"},{"inputs":[],"name":"OPERATOR_ROLE","outputs":[{"internalType":"bytes32","name":"","type":"bytes32"}],"stateMutability":"view","type":"function"},{"inputs":[],"name":"PAUSER_ROLE","outputs":[{"internalType":"bytes32","name":"","type":"bytes32"}],"stateMutability":"view","type":"function"},{"inputs":[{"internalType":"bytes32","name":"transferId","type":"bytes32"},{"internalType":"address","name":"recipient","type":"address"},{"internalType":"bytes32","name":"expectedRecipientHash","type":"bytes32"}],"name":"claimTransfer","outputs":[],"stateMutability":"nonpayable","type":"function"},{"inputs":[{"components":[{"internalType":"bytes32","name":"transferId","type":"bytes32"},{"internalType":"address","name":"token","type":"address"},{"internalType":"address","name":"fundingWallet","type":"address"},{"internalType":"uint96","name":"amount","type":"uint96"},{"internalType":"bytes32","name":"recipientHash","type":"bytes32"},{"internalType":"uint40","name":"expiry","type":"uint40"}],"internalType":"struct SharedEscrow.CreateParams","name":"params","type":"tuple"},{"components":[{"internalType":"bool","name":"enabled","type":"bool"},{"internalType":"uint256","name":"value","type":"uint256"},{"internalType":"uint256","name":"deadline","type":"uint256"},{"internalType":"uint8","name":"v","type":"uint8"},{"internalType":"bytes32","name":"r","type":"bytes32"},{"internalType":"bytes32","name":"s","type":"bytes32"}],"internalType":"struct SharedEscrow.PermitInput","name":"permit","type":"tuple"}],"name":"createTransfer","outputs":[],"stateMutability":"nonpayable","type":"function"},{"inputs":[{"internalType":"bytes32","name":"transferId","type":"bytes32"}],"name":"expireTransfer","outputs":[],"stateMutability":"nonpayable","type":"function"},{"inputs":[{"internalType":"bytes32","name":"role","type":"bytes32"}],"name":"getRoleAdmin","outputs":[{"internalType":"bytes32","name":"","type":"bytes32"}],"stateMutability":"view","type":"function"},{"inputs":[{"internalType":"bytes32","name":"transferId","type":"bytes32"}],"name":"getTransfer","outputs":[{"components":[{"internalType":"address","name":"sender","type":"address"},{"internalType":"address","name":"token","type":"address"},{"internalType":"uint96","name":"amount","type":"uint96"},{"internalType":"bytes32","name":"recipientHash","type":"bytes32"},{"internalType":"uint40","name":"expiry","type":"uint40"},{"internalType":"enum SharedEscrow.Status","name":"status","type":"uint8"}],"internalType":"struct SharedEscrow.Transfer","name":"","type":"tuple"}],"stateMutability":"view","type":"function"},{"inputs":[{"internalType":"bytes32","name":"role","type":"bytes32"},{"internalType":"address","name":"account","type":"address"}],"name":"grantRole","outputs":[],"stateMutability":"nonpayable","type":"function"},{"inputs":[{"internalType":"bytes32","name":"role","type":"bytes32"},{"internalType":"address","name":"account","type":"address"}],"name":"hasRole","outputs":[{"internalType":"bool","name":"","type":"bool"}],"stateMutability":"view","type":"function"},{"inputs":[{"internalType":"address","name":"","type":"address"}],"name":"lockedBalance","outputs":[{"internalType":"uint256","name":"","type":"uint256"}],"stateMutability":"view","type":"function"},{"inputs":[],"name":"pause","outputs":[],"stateMutability":"nonpayable","type":"function"},{"inputs":[],"name":"paused","outputs":[{"internalType":"bool","name":"","type":"bool"}],"stateMutability":"view","type":"function"},{"inputs":[{"internalType":"bytes32","name":"transferId","type":"bytes32"},{"internalType":"address","name":"refundAddress","type":"address"}],"name":"refundTransfer","outputs":[],"stateMutability":"nonpayable","type":"function"},{"inputs":[{"internalType":"bytes32","name":"role","type":"bytes32"},{"internalType":"address","name":"callerConfirmation","type":"address"}],"name":"renounceRole","outputs":[],"stateMutability":"nonpayable","type":"function"},{"inputs":[{"internalType":"bytes32","name":"role","type":"bytes32"},{"internalType":"address","name":"account","type":"address"}],"name":"revokeRole","outputs":[],"stateMutability":"nonpayable","type":"function"},{"inputs":[{"internalType":"bytes4","name":"interfaceId","type":"bytes4"}],"name":"supportsInterface","outputs":[{"internalType":"bool","name":"","type":"bool"}],"stateMutability":"view","type":"function"},{"inputs":[{"internalType":"bytes32","name":"transferId","type":"bytes32"}],"name":"transferStatus","outputs":[{"internalType":"enum SharedEscrow.Status","name":"","type":"uint8"}],"stateMutability":"view","type":"function"},{"inputs":[],"name":"unpause","outputs":[],"stateMutability":"nonpayable","type":"function"}],"evm":{"bytecode":{"linkReferences":{},"object":"60806040523480156200001157600080fd5b506040516200163c3803806200163c8339810160408190526200003491620001a3565b60016002556001600160a01b038116620000855760405162461bcd60e51b815260206004820152600e60248201526d18591b5a5b881c995c5d5a5c995960921b604482015260640160405180910390fd5b62000092600082620000f4565b50620000bf7f97667070c54ef182b0f5858b034beac1b6f3089aa2d3188bb1e8929f4fa9b92982620000f4565b50620000ec7f65d7a28e3265b37a6474929f336521b332c1681b933f6cb9f3376673440d862a82620000f4565b5050620001d5565b6000828152602081815260408083206001600160a01b038516845290915281205460ff1662000199576000838152602081815260408083206001600160a01b03861684529091529020805460ff19166001179055620001503390565b6001600160a01b0316826001600160a01b0316847f2f8788117e7eff1d82e926ec794901d17c78024a50270940304540a733656f0d60405160405180910390a45060016200019d565b5060005b92915050565b600060208284031215620001b657600080fd5b81516001600160a01b0381168114620001ce57600080fd5b9392505050565b61145780620001e56000396000f3fe608060405234801561001057600080fd5b50600436106101215760003560e01c806391d14854116100ad578063c9f19f9211610071578063c9f19f921461027e578063d547741f14610291578063e5b10d12146102a4578063e63ab1e9146102b7578063f5b541a6146102de57600080fd5b806391d14854146101f55780639ae697bf14610208578063a217fddf14610228578063bb10065c14610230578063bfd790301461024357600080fd5b806336568abe116100f457806336568abe146101b45780633f4ba83a146101c75780635c975abb146101cf5780638456cb59146101da5780638ed90a9e146101e257600080fd5b806301ffc9a714610126578063248a9ca31461014e578063260958a51461017f5780632f2ff15d1461019f575b600080fd5b61013961013436600461115a565b6102f3565b60405190151581526020015b60405180910390f35b61017161015c36600461118b565b60009081526020819052604090206001015490565b604051908152602001610145565b61019261018d36600461118b565b61032a565b60405161014591906111dc565b6101b26101ad366004611261565b610408565b005b6101b26101c2366004611261565b610433565b6101b261046b565b60015460ff16610139565b6101b26104a0565b6101b26101f0366004611261565b6104d2565b610139610203366004611261565b610633565b61017161021636600461128d565b60046020526000908152604090205481565b610171600081565b6101b261023e36600461118b565b61065c565b61027161025136600461118b565b60009081526003602081905260409091200154600160281b900460ff1690565b60405161014591906112a8565b6101b261028c3660046112ce565b610737565b6101b261029f366004611261565b610b44565b6101b26102b23660046112fb565b610b69565b6101717f65d7a28e3265b37a6474929f336521b332c1681b933f6cb9f3376673440d862a81565b61017160008051602061140283398151915281565b60006001600160e01b03198216637965db0b60e01b148061032457506301ffc9a760e01b6001600160e01b03198316145b92915050565b6103606040805160c08101825260008082526020820181905291810182905260608101829052608081018290529060a082015290565b600082815260036020818152604092839020835160c08101855281546001600160a01b039081168252600183015490811693820193909352600160a01b9092046001600160601b031693820193909352600283015460608201529082015464ffffffffff8116608083015290919060a0830190600160281b900460ff1660048111156103ee576103ee6111a4565b60048111156103ff576103ff6111a4565b90525092915050565b60008281526020819052604090206001015461042381610cfe565b61042d8383610d08565b50505050565b6001600160a01b038116331461045c5760405163334bd91960e11b815260040160405180910390fd5b6104668282610d9a565b505050565b7f65d7a28e3265b37a6474929f336521b332c1681b933f6cb9f3376673440d862a61049581610cfe565b61049d610e05565b50565b7f65d7a28e3265b37a6474929f336521b332c1681b933f6cb9f3376673440d862a6104ca81610cfe565b61049d610e57565b6000805160206114028339815191526104ea81610cfe565b6104f2610e92565b600083815260036020526040902060016003820154600160281b900460ff166004811115610522576105226111a4565b14610540576040516308cd5ef960e31b815260040160405180910390fd5b600381015464ffffffffff1642101561056c57604051632cc8960360e11b815260040160405180910390fd5b6003818101805465ff00000000001916600160281b8302179055506001810180546001600160a01b0381169182905560009182526004602052604082208054600160a01b9092046001600160601b03169283926105ca908490611346565b909155505060018201546105f1906001600160a01b0316856001600160601b038416610eba565b6040516001600160a01b0385169086907fe95884ba5110c16afe6da4b181d619c4a785bc60192b7e96ed8d8892bd5594da90600090a350506104666001600255565b6000918252602082815260408084206001600160a01b0393909316845291905290205460ff1690565b60008051602061140283398151915261067481610cfe565b600082815260036020526040902060016003820154600160281b900460ff1660048111156106a4576106a46111a4565b146106c2576040516308cd5ef960e31b815260040160405180910390fd5b600381015464ffffffffff164210156106ee57604051632cc8960360e11b815260040160405180910390fd5b60038101805465ff000000000019166504000000000017905560405183907f9a973cea438ef193e7f1ad66ab4be14e35e92b5beadccbb092bf604a43fdb87490600090a2505050565b61073f610f19565b60008051602061140283398151915261075781610cfe565b61075f610e92565b61076883610f3f565b6107756020830183611359565b1561084f5761078a604084016020850161128d565b6001600160a01b031663d505accf6107a8606086016040870161128d565b30602086013560408701356107c36080890160608a0161137b565b6040516001600160e01b031960e088901b1681526001600160a01b0395861660048201529490931660248501526044840191909152606483015260ff166084820152608085013560a482015260a085013560c482015260e401600060405180830381600087803b15801561083657600080fd5b505af115801561084a573d6000803e3d6000fd5b505050505b82356000908152600360205260408120906003820154600160281b900460ff166004811115610880576108806111a4565b1461089e57604051636f6df15960e11b815260040160405180910390fd5b6108ec6108b1606086016040870161128d565b306108c2608088016060890161139e565b6001600160601b03166108db6040890160208a0161128d565b6001600160a01b031692919061104b565b6040518060c0016040528085604001602081019061090a919061128d565b6001600160a01b0316815260200185602001602081019061092b919061128d565b6001600160a01b03168152602001610949608087016060880161139e565b6001600160601b031681526080860135602082015260400161097160c0870160a088016113c7565b64ffffffffff168152602001600190528435600090815260036020818152604092839020845181546001600160a01b039182166001600160a01b031990911617825591850151938501516001600160601b0316600160a01b0293909116929092176001830155606083015160028301556080830151908201805464ffffffffff90921664ffffffffff1983168117825560a08501519265ffffffffffff191617600160281b836004811115610a2857610a286111a4565b0217905550610a40915050608085016060860161139e565b6001600160601b031660046000610a5d604088016020890161128d565b6001600160a01b03166001600160a01b031681526020019081526020016000206000828254610a8c91906113ee565b90915550506080840135610aa6606086016040870161128d565b6001600160a01b031685357fbbd4a5d6727958c71509266b4c5a62b7c0858fc8a30418bfeaedef6244c29535610ae26040890160208a0161128d565b610af260808a0160608b0161139e565b610b0260c08b0160a08c016113c7565b604080516001600160a01b0390941684526001600160601b03909216602084015264ffffffffff169082015260600160405180910390a4506104666001600255565b600082815260208190526040902060010154610b5f81610cfe565b61042d8383610d9a565b610b71610f19565b600080516020611402833981519152610b8981610cfe565b610b91610e92565b600084815260036020526040902060016003820154600160281b900460ff166004811115610bc157610bc16111a4565b14610bdf576040516308cd5ef960e31b815260040160405180910390fd5b828160020154141580610bf0575082155b15610c0e5760405163d6a2ffd560e01b815260040160405180910390fd5b600381015464ffffffffff164210610c395760405163506b27c560e11b815260040160405180910390fd5b60038101805465ff00000000001916650200000000001790556001810180546001600160a01b0381169182905560009182526004602052604082208054600160a01b9092046001600160601b0316928392610c95908490611346565b90915550506001820154610cbc906001600160a01b0316866001600160601b038416610eba565b6040516001600160a01b0386169087907f89111f34adafcb7060c3c072eafa91feed3e90154074d498bbf3620002fe68bf90600090a3505061042d6001600255565b61049d8133611084565b6000610d148383610633565b610d92576000838152602081815260408083206001600160a01b03861684529091529020805460ff19166001179055610d4a3390565b6001600160a01b0316826001600160a01b0316847f2f8788117e7eff1d82e926ec794901d17c78024a50270940304540a733656f0d60405160405180910390a4506001610324565b506000610324565b6000610da68383610633565b15610d92576000838152602081815260408083206001600160a01b0386168085529252808320805460ff1916905551339286917ff6391f5c32d9c69d2a47ea670b442974b53935d1edc7fd64eb21e047a839171b9190a4506001610324565b610e0d6110c6565b6001805460ff191690557f5db9ee0a495bf2e6ff9c91a7834c1ba4fdd244a5e8aa4e537bd38aeae4b073aa335b6040516001600160a01b03909116815260200160405180910390a1565b610e5f610f19565b6001805460ff1916811790557f62e78cea01bee320cd4e420270b5ea74000d11b0c9f74754ebdbfc544b05a25833610e3a565b6002805403610eb457604051633ee5aeb560e01b815260040160405180910390fd5b60028055565b6040516001600160a01b0383811660248301526044820183905261046691859182169063a9059cbb906064015b604051602081830303815290604052915060e01b6020820180516001600160e01b0383818316178352505050506110e9565b60015460ff1615610f3d5760405163d93c066560e01b815260040160405180910390fd5b565b8035610f5e5760405163d6a2ffd560e01b815260040160405180910390fd5b610f6e608082016060830161139e565b6001600160601b0316600003610f975760405163162908e360e11b815260040160405180910390fd5b6080810135610fb95760405163d6a2ffd560e01b815260040160405180910390fd5b42610fca60c0830160a084016113c7565b64ffffffffff1611610fee5760405162d36c8560e81b815260040160405180910390fd5b6000611000604083016020840161128d565b6001600160a01b0316148061102d57506000611022606083016040840161128d565b6001600160a01b0316145b1561049d5760405163e6c4247b60e01b815260040160405180910390fd5b6040516001600160a01b03848116602483015283811660448301526064820183905261042d9186918216906323b872dd90608401610ee7565b61108e8282610633565b6110c25760405163e2517d3f60e01b81526001600160a01b0382166004820152602481018390526044015b60405180910390fd5b5050565b60015460ff16610f3d57604051638dfc202b60e01b815260040160405180910390fd5b600080602060008451602086016000885af18061110c576040513d6000823e3d81fd5b50506000513d91508115611124578060011415611131565b6001600160a01b0384163b155b1561042d57604051635274afe760e01b81526001600160a01b03851660048201526024016110b9565b60006020828403121561116c57600080fd5b81356001600160e01b03198116811461118457600080fd5b9392505050565b60006020828403121561119d57600080fd5b5035919050565b634e487b7160e01b600052602160045260246000fd5b600581106111d857634e487b7160e01b600052602160045260246000fd5b9052565b600060c08201905060018060a01b03808451168352806020850151166020840152506001600160601b0360408401511660408301526060830151606083015264ffffffffff608084015116608083015260a083015161123e60a08401826111ba565b5092915050565b80356001600160a01b038116811461125c57600080fd5b919050565b6000806040838503121561127457600080fd5b8235915061128460208401611245565b90509250929050565b60006020828403121561129f57600080fd5b61118482611245565b6020810161032482846111ba565b600060c082840312156112c857600080fd5b50919050565b60008061018083850312156112e257600080fd5b6112ec84846112b6565b91506112848460c085016112b6565b60008060006060848603121561131057600080fd5b8335925061132060208501611245565b9150604084013590509250925092565b634e487b7160e01b600052601160045260246000fd5b8181038181111561032457610324611330565b60006020828403121561136b57600080fd5b8135801515811461118457600080fd5b60006020828403121561138d57600080fd5b813560ff8116811461118457600080fd5b6000602082840312156113b057600080fd5b81356001600160601b038116811461118457600080fd5b6000602082840312156113d957600080fd5b813564ffffffffff8116811461118457600080fd5b808201808211156103245761032461133056fe97667070c54ef182b0f5858b034beac1b6f3089aa2d3188bb1e8929f4fa9b929a26469706673582212204dff4e1e5cff9134da08bd5054c620b27f3f0b0f11da2e95f9ee5496299c04bb64736f6c63430008180033","opcodes":"PUSH1 0x80 PUSH1 0x40 MSTORE CALLVALUE DUP1 ISZERO PUSH3 0x11 JUMPI PUSH1 0x0 DUP1 REVERT JUMPDEST POP PUSH1 0x40 MLOAD PUSH3 0x163C CODESIZE SUB DUP1 PUSH3 0x163C DUP4 CODECOPY DUP2 ADD PUSH1 0x40 DUP2 SWAP1 MSTORE PUSH3 0x34 SWAP2 PUSH3 0x1A3 JUMP JUMPDEST PUSH1 0x1 PUSH1 0x2 SSTORE PUSH1 0x1 PUSH1 0x1 PUSH1 0xA0 SHL SUB DUP2 AND PUSH3 0x85 JUMPI PUSH1 0x40 MLOAD PUSH3 0x461BCD PUSH1 0xE5 SHL DUP2 MSTORE PUSH1 0x20 PUSH1 0x4 DUP3 ADD MSTORE PUSH1 0xE PUSH1 0x24 DUP3 ADD MSTORE PUSH14 0x18591B5A5B881C995C5D5A5C9959 PUSH1 0x92 SHL PUSH1 0x44 DUP3 ADD MSTORE PUSH1 0x64 ADD PUSH1 0x40 MLOAD DUP1 SWAP2 SUB SWAP1 REVERT JUMPDEST PUSH3 0x92 PUSH1 0x0 DUP3 PUSH3 0xF4 JUMP JUMPDEST POP PUSH3 0xBF PUSH32 0x97667070C54EF182B0F5858B034BEAC1B6F3089AA2D3188BB1E8929F4FA9B929 DUP3 PUSH3 0xF4 JUMP JUMPDEST POP PUSH3 0xEC PUSH32 0x65D7A28E3265B37A6474929F336521B332C1681B933F6CB9F3376673440D862A DUP3 PUSH3 0xF4 JUMP JUMPDEST POP POP PUSH3 0x1D5 JUMP JUMPDEST PUSH1 0x0 DUP3 DUP2 MSTORE PUSH1 0x20 DUP2 DUP2 MSTORE PUSH1 0x40 DUP1 DUP4 KECCAK256 PUSH1 0x1 PUSH1 0x1 PUSH1 0xA0 SHL SUB DUP6 AND DUP5 MSTORE SWAP1 SWAP2 MSTORE DUP2 KECCAK256 SLOAD PUSH1 0xFF AND PUSH3 0x199 JUMPI PUSH1 0x0 DUP4 DUP2 MSTORE PUSH1 0x20 DUP2 DUP2 MSTORE PUSH1 0x40 DUP1 DUP4 KECCAK256 PUSH1 0x1 PUSH1 0x1 PUSH1 0xA0 SHL SUB DUP7 AND DUP5 MSTORE SWAP1 SWAP2 MSTORE SWAP1 KECCAK256 DUP1 SLOAD PUSH1 0xFF NOT AND PUSH1 0x1 OR SWAP1 SSTORE PUSH3 0x150 CALLER SWAP1 JUMP JUMPDEST PUSH1 0x1 PUSH1 0x1 PUSH1 0xA0 SHL SUB AND DUP3 PUSH1 0x1 PUSH1 0x1 PUSH1 0xA0 SHL SUB AND DUP5 PUSH32 0x2F8788117E7EFF1D82E926EC794901D17C78024A50270940304540A733656F0D PUSH1 0x40 MLOAD PUSH1 0x40 MLOAD DUP1 SWAP2 SUB SWAP1 LOG4 POP PUSH1 0x1 PUSH3 0x19D JUMP JUMPDEST POP PUSH1 0x0 JUMPDEST SWAP3 SWAP2 POP POP JUMP JUMPDEST PUSH1 0x0 PUSH1 0x20 DUP3 DUP5 SUB SLT ISZERO PUSH3 0x1B6 JUMPI PUSH1 0x0 DUP1 REVERT JUMPDEST DUP2 MLOAD PUSH1 0x1 PUSH1 0x1 PUSH1 0xA0 SHL SUB DUP2 AND DUP2 EQ PUSH3 0x1CE JUMPI PUSH1 0x0 DUP1 REVERT JUMPDEST SWAP4 SWAP3 POP POP POP JUMP JUMPDEST PUSH2 0x1457 DUP1 PUSH3 0x1E5 PUSH1 0x0 CODECOPY PUSH1 0x0 RETURN INVALID PUSH1 0x80 PUSH1 0x40 MSTORE CALLVALUE DUP1 ISZERO PUSH2 0x10 JUMPI PUSH1 0x0 DUP1 REVERT JUMPDEST POP PUSH1 0x4 CALLDATASIZE LT PUSH2 0x121 JUMPI PUSH1 0x0 CALLDATALOAD PUSH1 0xE0 SHR DUP1 PUSH4 0x91D14854 GT PUSH2 0xAD JUMPI DUP1 PUSH4 0xC9F19F92 GT PUSH2 0x71 JUMPI DUP1 PUSH4 0xC9F19F92 EQ PUSH2 0x27E JUMPI DUP1 PUSH4 0xD547741F EQ PUSH2 0x291 JUMPI DUP1 PUSH4 0xE5B10D12 EQ PUSH2 0x2A4 JUMPI DUP1 PUSH4 0xE63AB1E9 EQ PUSH2 0x2B7 JUMPI DUP1 PUSH4 0xF5B541A6 EQ PUSH2 0x2DE JUMPI PUSH1 0x0 DUP1 REVERT JUMPDEST DUP1 PUSH4 0x91D14854 EQ PUSH2 0x1F5 JUMPI DUP1 PUSH4 0x9AE697BF EQ PUSH2 0x208 JUMPI DUP1 PUSH4 0xA217FDDF EQ PUSH2 0x228 JUMPI DUP1 PUSH4 0xBB10065C EQ PUSH2 0x230 JUMPI DUP1 PUSH4 0xBFD79030 EQ PUSH2 0x243 JUMPI PUSH1 0x0 DUP1 REVERT JUMPDEST DUP1 PUSH4 0x36568ABE GT PUSH2 0xF4 JUMPI DUP1 PUSH4 0x36568ABE EQ PUSH2 0x1B4 JUMPI DUP1 PUSH4 0x3F4BA83A EQ PUSH2 0x1C7 JUMPI DUP1 PUSH4 0x5C975ABB EQ PUSH2 0x1CF JUMPI DUP1 PUSH4 0x8456CB59 EQ PUSH2 0x1DA JUMPI DUP1 PUSH4 0x8ED90A9E EQ PUSH2 0x1E2 JUMPI PUSH1 0x0 DUP1 REVERT JUMPDEST DUP1 PUSH4 0x1FFC9A7 EQ PUSH2 0x126 JUMPI DUP1 PUSH4 0x248A9CA3 EQ PUSH2 0x14E JUMPI DUP1 PUSH4 0x260958A5 EQ PUSH2 0x17F JUMPI DUP1 PUSH4 0x2F2FF15D EQ PUSH2 0x19F JUMPI JUMPDEST PUSH1 0x0 DUP1 REVERT JUMPDEST PUSH2 0x139 PUSH2 0x134 CALLDATASIZE PUSH1 0x4 PUSH2 0x115A JUMP JUMPDEST PUSH2 0x2F3 JUMP JUMPDEST PUSH1 0x40 MLOAD SWAP1 ISZERO ISZERO DUP2 MSTORE PUSH1 0x20 ADD JUMPDEST PUSH1 0x40 MLOAD DUP1 SWAP2 SUB SWAP1 RETURN JUMPDEST PUSH2 0x171 PUSH2 0x15C CALLDATASIZE PUSH1 0x4 PUSH2 0x118B JUMP JUMPDEST PUSH1 0x0 SWAP1 DUP2 MSTORE PUSH1 0x20 DUP2 SWAP1 MSTORE PUSH1 0x40 SWAP1 KECCAK256 PUSH1 0x1 ADD SLOAD SWAP1 JUMP JUMPDEST PUSH1 0x40 MLOAD SWAP1 DUP2 MSTORE PUSH1 0x20 ADD PUSH2 0x145 JUMP JUMPDEST PUSH2 0x192 PUSH2 0x18D CALLDATASIZE PUSH1 0x4 PUSH2 0x118B JUMP JUMPDEST PUSH2 0x32A JUMP JUMPDEST PUSH1 0x40 MLOAD PUSH2 0x145 SWAP2 SWAP1 PUSH2 0x11DC JUMP JUMPDEST PUSH2 0x1B2 PUSH2 0x1AD CALLDATASIZE PUSH1 0x4 PUSH2 0x1261 JUMP JUMPDEST PUSH2 0x408 JUMP JUMPDEST STOP JUMPDEST PUSH2 0x1B2 PUSH2 0x1C2 CALLDATASIZE PUSH1 0x4 PUSH2 0x1261 JUMP JUMPDEST PUSH2 0x433 JUMP JUMPDEST PUSH2 0x1B2 PUSH2 0x46B JUMP JUMPDEST PUSH1 0x1 SLOAD PUSH1 0xFF AND PUSH2 0x139 JUMP JUMPDEST PUSH2 0x1B2 PUSH2 0x4A0 JUMP JUMPDEST PUSH2 0x1B2 PUSH2 0x1F0 CALLDATASIZE PUSH1 0x4 PUSH2 0x1261 JUMP JUMPDEST PUSH2 0x4D2 JUMP JUMPDEST PUSH2 0x139 PUSH2 0x203 CALLDATASIZE PUSH1 0x4 PUSH2 0x1261 JUMP JUMPDEST PUSH2 0x633 JUMP JUMPDEST PUSH2 0x171 PUSH2 0x216 CALLDATASIZE PUSH1 0x4 PUSH2 0x128D JUMP JUMPDEST PUSH1 0x4 PUSH1 0x20 MSTORE PUSH1 0x0 SWAP1 DUP2 MSTORE PUSH1 0x40 SWAP1 KECCAK256 SLOAD DUP2 JUMP JUMPDEST PUSH2 0x171 PUSH1 0x0 DUP2 JUMP JUMPDEST PUSH2 0x1B2 PUSH2 0x23E CALLDATASIZE PUSH1 0x4 PUSH2 0x118B JUMP JUMPDEST PUSH2 0x65C JUMP JUMPDEST PUSH2 0x271 PUSH2 0x251 CALLDATASIZE PUSH1 0x4 PUSH2 0x118B JUMP JUMPDEST PUSH1 0x0 SWAP1 DUP2 MSTORE PUSH1 0x3 PUSH1 0x20 DUP2 SWAP1 MSTORE PUSH1 0x40 SWAP1 SWAP2 KECCAK256 ADD SLOAD PUSH1 0x1 PUSH1 0x28 SHL SWAP1 DIV PUSH1 0xFF AND SWAP1 JUMP JUMPDEST PUSH1 0x40 MLOAD PUSH2 0x145 SWAP2 SWAP1 PUSH2 0x12A8 JUMP JUMPDEST PUSH2 0x1B2 PUSH2 0x28C CALLDATASIZE PUSH1 0x4 PUSH2 0x12CE JUMP JUMPDEST PUSH2 0x737 JUMP JUMPDEST PUSH2 0x1B2 PUSH2 0x29F CALLDATASIZE PUSH1 0x4 PUSH2 0x1261 JUMP JUMPDEST PUSH2 0xB44 JUMP JUMPDEST PUSH2 0x1B2 PUSH2 0x2B2 CALLDATASIZE PUSH1 0x4 PUSH2 0x12FB JUMP JUMPDEST PUSH2 0xB69 JUMP JUMPDEST PUSH2 0x171 PUSH32 0x65D7A28E3265B37A6474929F336521B332C1681B933F6CB9F3376673440D862A DUP2 JUMP JUMPDEST PUSH2 0x171 PUSH1 0x0 DUP1 MLOAD PUSH1 0x20 PUSH2 0x1402 DUP4 CODECOPY DUP2 MLOAD SWAP2 MSTORE DUP2 JUMP JUMPDEST PUSH1 0x0 PUSH1 0x1 PUSH1 0x1 PUSH1 0xE0 SHL SUB NOT DUP3 AND PUSH4 0x7965DB0B PUSH1 0xE0 SHL EQ DUP1 PUSH2 0x324 JUMPI POP PUSH4 0x1FFC9A7 PUSH1 0xE0 SHL PUSH1 0x1 PUSH1 0x1 PUSH1 0xE0 SHL SUB NOT DUP4 AND EQ JUMPDEST SWAP3 SWAP2 POP POP JUMP JUMPDEST PUSH2 0x360 PUSH1 0x40 DUP1 MLOAD PUSH1 0xC0 DUP2 ADD DUP3 MSTORE PUSH1 0x0 DUP1 DUP3 MSTORE PUSH1 0x20 DUP3 ADD DUP2 SWAP1 MSTORE SWAP2 DUP2 ADD DUP3 SWAP1 MSTORE PUSH1 0x60 DUP2 ADD DUP3 SWAP1 MSTORE PUSH1 0x80 DUP2 ADD DUP3 SWAP1 MSTORE SWAP1 PUSH1 0xA0 DUP3 ADD MSTORE SWAP1 JUMP JUMPDEST PUSH1 0x0 DUP3 DUP2 MSTORE PUSH1 0x3 PUSH1 0x20 DUP2 DUP2 MSTORE PUSH1 0x40 SWAP3 DUP4 SWAP1 KECCAK256 DUP4 MLOAD PUSH1 0xC0 DUP2 ADD DUP6 MSTORE DUP2 SLOAD PUSH1 0x1 PUSH1 0x1 PUSH1 0xA0 SHL SUB SWAP1 DUP2 AND DUP3 MSTORE PUSH1 0x1 DUP4 ADD SLOAD SWAP1 DUP2 AND SWAP4 DUP3 ADD SWAP4 SWAP1 SWAP4 MSTORE PUSH1 0x1 PUSH1 0xA0 SHL SWAP1 SWAP3 DIV PUSH1 0x1 PUSH1 0x1 PUSH1 0x60 SHL SUB AND SWAP4 DUP3 ADD SWAP4 SWAP1 SWAP4 MSTORE PUSH1 0x2 DUP4 ADD SLOAD PUSH1 0x60 DUP3 ADD MSTORE SWAP1 DUP3 ADD SLOAD PUSH5 0xFFFFFFFFFF DUP2 AND PUSH1 0x80 DUP4 ADD MSTORE SWAP1 SWAP2 SWAP1 PUSH1 0xA0 DUP4 ADD SWAP1 PUSH1 0x1 PUSH1 0x28 SHL SWAP1 DIV PUSH1 0xFF AND PUSH1 0x4 DUP2 GT ISZERO PUSH2 0x3EE JUMPI PUSH2 0x3EE PUSH2 0x11A4 JUMP JUMPDEST PUSH1 0x4 DUP2 GT ISZERO PUSH2 0x3FF JUMPI PUSH2 0x3FF PUSH2 0x11A4 JUMP JUMPDEST SWAP1 MSTORE POP SWAP3 SWAP2 POP POP JUMP JUMPDEST PUSH1 0x0 DUP3 DUP2 MSTORE PUSH1 0x20 DUP2 SWAP1 MSTORE PUSH1 0x40 SWAP1 KECCAK256 PUSH1 0x1 ADD SLOAD PUSH2 0x423 DUP2 PUSH2 0xCFE JUMP JUMPDEST PUSH2 0x42D DUP4 DUP4 PUSH2 0xD08 JUMP JUMPDEST POP POP POP POP JUMP JUMPDEST PUSH1 0x1 PUSH1 0x1 PUSH1 0xA0 SHL SUB DUP2 AND CALLER EQ PUSH2 0x45C JUMPI PUSH1 0x40 MLOAD PUSH4 0x334BD919 PUSH1 0xE1 SHL DUP2 MSTORE PUSH1 0x4 ADD PUSH1 0x40 MLOAD DUP1 SWAP2 SUB SWAP1 REVERT JUMPDEST PUSH2 0x466 DUP3 DUP3 PUSH2 0xD9A JUMP JUMPDEST POP POP POP JUMP JUMPDEST PUSH32 0x65D7A28E3265B37A6474929F336521B332C1681B933F6CB9F3376673440D862A PUSH2 0x495 DUP2 PUSH2 0xCFE JUMP JUMPDEST PUSH2 0x49D PUSH2 0xE05 JUMP JUMPDEST POP JUMP JUMPDEST PUSH32 0x65D7A28E3265B37A6474929F336521B332C1681B933F6CB9F3376673440D862A PUSH2 0x4CA DUP2 PUSH2 0xCFE JUMP JUMPDEST PUSH2 0x49D PUSH2 0xE57 JUMP JUMPDEST PUSH1 0x0 DUP1 MLOAD PUSH1 0x20 PUSH2 0x1402 DUP4 CODECOPY DUP2 MLOAD SWAP2 MSTORE PUSH2 0x4EA DUP2 PUSH2 0xCFE JUMP JUMPDEST PUSH2 0x4F2 PUSH2 0xE92 JUMP JUMPDEST PUSH1 0x0 DUP4 DUP2 MSTORE PUSH1 0x3 PUSH1 0x20 MSTORE PUSH1 0x40 SWAP1 KECCAK256 PUSH1 0x1 PUSH1 0x3 DUP3 ADD SLOAD PUSH1 0x1 PUSH1 0x28 SHL SWAP1 DIV PUSH1 0xFF AND PUSH1 0x4 DUP2 GT ISZERO PUSH2 0x522 JUMPI PUSH2 0x522 PUSH2 0x11A4 JUMP JUMPDEST EQ PUSH2 0x540 JUMPI PUSH1 0x40 MLOAD PUSH4 0x8CD5EF9 PUSH1 0xE3 SHL DUP2 MSTORE PUSH1 0x4 ADD PUSH1 0x40 MLOAD DUP1 SWAP2 SUB SWAP1 REVERT JUMPDEST PUSH1 0x3 DUP2 ADD SLOAD PUSH5 0xFFFFFFFFFF AND TIMESTAMP LT ISZERO PUSH2 0x56C JUMPI PUSH1 0x40 MLOAD PUSH4 0x2CC89603 PUSH1 0xE1 SHL DUP2 MSTORE PUSH1 0x4 ADD PUSH1 0x40 MLOAD DUP1 SWAP2 SUB SWAP1 REVERT JUMPDEST PUSH1 0x3 DUP2 DUP2 ADD DUP1 SLOAD PUSH6 0xFF0000000000 NOT AND PUSH1 0x1 PUSH1 0x28 SHL DUP4 MUL OR SWAP1 SSTORE POP PUSH1 0x1 DUP2 ADD DUP1 SLOAD PUSH1 0x1 PUSH1 0x1 PUSH1 0xA0 SHL SUB DUP2 AND SWAP2 DUP3 SWAP1 SSTORE PUSH1 0x0 SWAP2 DUP3 MSTORE PUSH1 0x4 PUSH1 0x20 MSTORE PUSH1 0x40 DUP3 KECCAK256 DUP1 SLOAD PUSH1 0x1 PUSH1 0xA0 SHL SWAP1 SWAP3 DIV PUSH1 0x1 PUSH1 0x1 PUSH1 0x60 SHL SUB AND SWAP3 DUP4 SWAP3 PUSH2 0x5CA SWAP1 DUP5 SWAP1 PUSH2 0x1346 JUMP JUMPDEST SWAP1 SWAP2 SSTORE POP POP PUSH1 0x1 DUP3 ADD SLOAD PUSH2 0x5F1 SWAP1 PUSH1 0x1 PUSH1 0x1 PUSH1 0xA0 SHL SUB AND DUP6 PUSH1 0x1 PUSH1 0x1 PUSH1 0x60 SHL SUB DUP5 AND PUSH2 0xEBA JUMP JUMPDEST PUSH1 0x40 MLOAD PUSH1 0x1 PUSH1 0x1 PUSH1 0xA0 SHL SUB DUP6 AND SWAP1 DUP7 SWAP1 PUSH32 0xE95884BA5110C16AFE6DA4B181D619C4A785BC60192B7E96ED8D8892BD5594DA SWAP1 PUSH1 0x0 SWAP1 LOG3 POP POP PUSH2 0x466 PUSH1 0x1 PUSH1 0x2 SSTORE JUMP JUMPDEST PUSH1 0x0 SWAP2 DUP3 MSTORE PUSH1 0x20 DUP3 DUP2 MSTORE PUSH1 0x40 DUP1 DUP5 KECCAK256 PUSH1 0x1 PUSH1 0x1 PUSH1 0xA0 SHL SUB SWAP4 SWAP1 SWAP4 AND DUP5 MSTORE SWAP2 SWAP1 MSTORE SWAP1 KECCAK256 SLOAD PUSH1 0xFF AND SWAP1 JUMP JUMPDEST PUSH1 0x0 DUP1 MLOAD PUSH1 0x20 PUSH2 0x1402 DUP4 CODECOPY DUP2 MLOAD SWAP2 MSTORE PUSH2 0x674 DUP2 PUSH2 0xCFE JUMP JUMPDEST PUSH1 0x0 DUP3 DUP2 MSTORE PUSH1 0x3 PUSH1 0x20 MSTORE PUSH1 0x40 SWAP1 KECCAK256 PUSH1 0x1 PUSH1 0x3 DUP3 ADD SLOAD PUSH1 0x1 PUSH1 0x28 SHL SWAP1 DIV PUSH1 0xFF AND PUSH1 0x4 DUP2 GT ISZERO PUSH2 0x6A4 JUMPI PUSH2 0x6A4 PUSH2 0x11A4 JUMP JUMPDEST EQ PUSH2 0x6C2 JUMPI PUSH1 0x40 MLOAD PUSH4 0x8CD5EF9 PUSH1 0xE3 SHL DUP2 MSTORE PUSH1 0x4 ADD PUSH1 0x40 MLOAD DUP1 SWAP2 SUB SWAP1 REVERT JUMPDEST PUSH1 0x3 DUP2 ADD SLOAD PUSH5 0xFFFFFFFFFF AND TIMESTAMP LT ISZERO PUSH2 0x6EE JUMPI PUSH1 0x40 MLOAD PUSH4 0x2CC89603 PUSH1 0xE1 SHL DUP2 MSTORE PUSH1 0x4 ADD PUSH1 0x40 MLOAD DUP1 SWAP2 SUB SWAP1 REVERT JUMPDEST PUSH1 0x3 DUP2 ADD DUP1 SLOAD PUSH6 0xFF0000000000 NOT AND PUSH6 0x40000000000 OR SWAP1 SSTORE PUSH1 0x40 MLOAD DUP4 SWAP1 PUSH32 0x9A973CEA438EF193E7F1AD66AB4BE14E35E92B5BEADCCBB092BF604A43FDB874 SWAP1 PUSH1 0x0 SWAP1 LOG2 POP POP POP JUMP JUMPDEST PUSH2 0x73F PUSH2 0xF19 JUMP JUMPDEST PUSH1 0x0 DUP1 MLOAD PUSH1 0x20 PUSH2 0x1402 DUP4 CODECOPY DUP2 MLOAD SWAP2 MSTORE PUSH2 0x757 DUP2 PUSH2 0xCFE JUMP JUMPDEST PUSH2 0x75F PUSH2 0xE92 JUMP JUMPDEST PUSH2 0x768 DUP4 PUSH2 0xF3F JUMP JUMPDEST PUSH2 0x775 PUSH1 0x20 DUP4 ADD DUP4 PUSH2 0x1359 JUMP JUMPDEST ISZERO PUSH2 0x84F JUMPI PUSH2 0x78A PUSH1 0x40 DUP5 ADD PUSH1 0x20 DUP6 ADD PUSH2 0x128D JUMP JUMPDEST PUSH1 0x1 PUSH1 0x1 PUSH1 0xA0 SHL SUB AND PUSH4 0xD505ACCF PUSH2 0x7A8 PUSH1 0x60 DUP7 ADD PUSH1 0x40 DUP8 ADD PUSH2 0x128D JUMP JUMPDEST ADDRESS PUSH1 0x20 DUP7 ADD CALLDATALOAD PUSH1 0x40 DUP8 ADD CALLDATALOAD PUSH2 0x7C3 PUSH1 0x80 DUP10 ADD PUSH1 0x60 DUP11 ADD PUSH2 0x137B JUMP JUMPDEST PUSH1 0x40 MLOAD PUSH1 0x1 PUSH1 0x1 PUSH1 0xE0 SHL SUB NOT PUSH1 0xE0 DUP9 SWAP1 SHL AND DUP2 MSTORE PUSH1 0x1 PUSH1 0x1 PUSH1 0xA0 SHL SUB SWAP6 DUP7 AND PUSH1 0x4 DUP3 ADD MSTORE SWAP5 SWAP1 SWAP4 AND PUSH1 0x24 DUP6 ADD MSTORE PUSH1 0x44 DUP5 ADD SWAP2 SWAP1 SWAP2 MSTORE PUSH1 0x64 DUP4 ADD MSTORE PUSH1 0xFF AND PUSH1 0x84 DUP3 ADD MSTORE PUSH1 0x80 DUP6 ADD CALLDATALOAD PUSH1 0xA4 DUP3 ADD MSTORE PUSH1 0xA0 DUP6 ADD CALLDATALOAD PUSH1 0xC4 DUP3 ADD MSTORE PUSH1 0xE4 ADD PUSH1 0x0 PUSH1 0x40 MLOAD DUP1 DUP4 SUB DUP2 PUSH1 0x0 DUP8 DUP1 EXTCODESIZE ISZERO DUP1 ISZERO PUSH2 0x836 JUMPI PUSH1 0x0 DUP1 REVERT JUMPDEST POP GAS CALL ISZERO DUP1 ISZERO PUSH2 0x84A JUMPI RETURNDATASIZE PUSH1 0x0 DUP1 RETURNDATACOPY RETURNDATASIZE PUSH1 0x0 REVERT JUMPDEST POP POP POP POP JUMPDEST DUP3 CALLDATALOAD PUSH1 0x0 SWAP1 DUP2 MSTORE PUSH1 0x3 PUSH1 0x20 MSTORE PUSH1 0x40 DUP2 KECCAK256 SWAP1 PUSH1 0x3 DUP3 ADD SLOAD PUSH1 0x1 PUSH1 0x28 SHL SWAP1 DIV PUSH1 0xFF AND PUSH1 0x4 DUP2 GT ISZERO PUSH2 0x880 JUMPI PUSH2 0x880 PUSH2 0x11A4 JUMP JUMPDEST EQ PUSH2 0x89E JUMPI PUSH1 0x40 MLOAD PUSH4 0x6F6DF159 PUSH1 0xE1 SHL DUP2 MSTORE PUSH1 0x4 ADD PUSH1 0x40 MLOAD DUP1 SWAP2 SUB SWAP1 REVERT JUMPDEST PUSH2 0x8EC PUSH2 0x8B1 PUSH1 0x60 DUP7 ADD PUSH1 0x40 DUP8 ADD PUSH2 0x128D JUMP JUMPDEST ADDRESS PUSH2 0x8C2 PUSH1 0x80 DUP9 ADD PUSH1 0x60 DUP10 ADD PUSH2 0x139E JUMP JUMPDEST PUSH1 0x1 PUSH1 0x1 PUSH1 0x60 SHL SUB AND PUSH2 0x8DB PUSH1 0x40 DUP10 ADD PUSH1 0x20 DUP11 ADD PUSH2 0x128D JUMP JUMPDEST PUSH1 0x1 PUSH1 0x1 PUSH1 0xA0 SHL SUB AND SWAP3 SWAP2 SWAP1 PUSH2 0x104B JUMP JUMPDEST PUSH1 0x40 MLOAD DUP1 PUSH1 0xC0 ADD PUSH1 0x40 MSTORE DUP1 DUP6 PUSH1 0x40 ADD PUSH1 0x20 DUP2 ADD SWAP1 PUSH2 0x90A SWAP2 SWAP1 PUSH2 0x128D JUMP JUMPDEST PUSH1 0x1 PUSH1 0x1 PUSH1 0xA0 SHL SUB AND DUP2 MSTORE PUSH1 0x20 ADD DUP6 PUSH1 0x20 ADD PUSH1 0x20 DUP2 ADD SWAP1 PUSH2 0x92B SWAP2 SWAP1 PUSH2 0x128D JUMP JUMPDEST PUSH1 0x1 PUSH1 0x1 PUSH1 0xA0 SHL SUB AND DUP2 MSTORE PUSH1 0x20 ADD PUSH2 0x949 PUSH1 0x80 DUP8 ADD PUSH1 0x60 DUP9 ADD PUSH2 0x139E JUMP JUMPDEST PUSH1 0x1 PUSH1 0x1 PUSH1 0x60 SHL SUB AND DUP2 MSTORE PUSH1 0x80 DUP7 ADD CALLDATALOAD PUSH1 0x20 DUP3 ADD MSTORE PUSH1 0x40 ADD PUSH2 0x971 PUSH1 0xC0 DUP8 ADD PUSH1 0xA0 DUP9 ADD PUSH2 0x13C7 JUMP JUMPDEST PUSH5 0xFFFFFFFFFF AND DUP2 MSTORE PUSH1 0x20 ADD PUSH1 0x1 SWAP1 MSTORE DUP5 CALLDATALOAD PUSH1 0x0 SWAP1 DUP2 MSTORE PUSH1 0x3 PUSH1 0x20 DUP2 DUP2 MSTORE PUSH1 0x40 SWAP3 DUP4 SWAP1 KECCAK256 DUP5 MLOAD DUP2 SLOAD PUSH1 0x1 PUSH1 0x1 PUSH1 0xA0 SHL SUB SWAP2 DUP3 AND PUSH1 0x1 PUSH1 0x1 PUSH1 0xA0 SHL SUB NOT SWAP1 SWAP2 AND OR DUP3 SSTORE SWAP2 DUP6 ADD MLOAD SWAP4 DUP6 ADD MLOAD PUSH1 0x1 PUSH1 0x1 PUSH1 0x60 SHL SUB AND PUSH1 0x1 PUSH1 0xA0 SHL MUL SWAP4 SWAP1 SWAP2 AND SWAP3 SWAP1 SWAP3 OR PUSH1 0x1 DUP4 ADD SSTORE PUSH1 0x60 DUP4 ADD MLOAD PUSH1 0x2 DUP4 ADD SSTORE PUSH1 0x80 DUP4 ADD MLOAD SWAP1 DUP3 ADD DUP1 SLOAD PUSH5 0xFFFFFFFFFF SWAP1 SWAP3 AND PUSH5 0xFFFFFFFFFF NOT DUP4 AND DUP2 OR DUP3 SSTORE PUSH1 0xA0 DUP6 ADD MLOAD SWAP3 PUSH6 0xFFFFFFFFFFFF NOT AND OR PUSH1 0x1 PUSH1 0x28 SHL DUP4 PUSH1 0x4 DUP2 GT ISZERO PUSH2 0xA28 JUMPI PUSH2 0xA28 PUSH2 0x11A4 JUMP JUMPDEST MUL OR SWAP1 SSTORE POP PUSH2 0xA40 SWAP2 POP POP PUSH1 0x80 DUP6 ADD PUSH1 0x60 DUP7 ADD PUSH2 0x139E JUMP JUMPDEST PUSH1 0x1 PUSH1 0x1 PUSH1 0x60 SHL SUB AND PUSH1 0x4 PUSH1 0x0 PUSH2 0xA5D PUSH1 0x40 DUP9 ADD PUSH1 0x20 DUP10 ADD PUSH2 0x128D JUMP JUMPDEST PUSH1 0x1 PUSH1 0x1 PUSH1 0xA0 SHL SUB AND PUSH1 0x1 PUSH1 0x1 PUSH1 0xA0 SHL SUB AND DUP2 MSTORE PUSH1 0x20 ADD SWAP1 DUP2 MSTORE PUSH1 0x20 ADD PUSH1 0x0 KECCAK256 PUSH1 0x0 DUP3 DUP3 SLOAD PUSH2 0xA8C SWAP2 SWAP1 PUSH2 0x13EE JUMP JUMPDEST SWAP1 SWAP2 SSTORE POP POP PUSH1 0x80 DUP5 ADD CALLDATALOAD PUSH2 0xAA6 PUSH1 0x60 DUP7 ADD PUSH1 0x40 DUP8 ADD PUSH2 0x128D JUMP JUMPDEST PUSH1 0x1 PUSH1 0x1 PUSH1 0xA0 SHL SUB AND DUP6 CALLDATALOAD PUSH32 0xBBD4A5D6727958C71509266B4C5A62B7C0858FC8A30418BFEAEDEF6244C29535 PUSH2 0xAE2 PUSH1 0x40 DUP10 ADD PUSH1 0x20 DUP11 ADD PUSH2 0x128D JUMP JUMPDEST PUSH2 0xAF2 PUSH1 0x80 DUP11 ADD PUSH1 0x60 DUP12 ADD PUSH2 0x139E JUMP JUMPDEST PUSH2 0xB02 PUSH1 0xC0 DUP12 ADD PUSH1 0xA0 DUP13 ADD PUSH2 0x13C7 JUMP JUMPDEST PUSH1 0x40 DUP1 MLOAD PUSH1 0x1 PUSH1 0x1 PUSH1 0xA0 SHL SUB SWAP1 SWAP5 AND DUP5 MSTORE PUSH1 0x1 PUSH1 0x1 PUSH1 0x60 SHL SUB SWAP1 SWAP3 AND PUSH1 0x20 DUP5 ADD MSTORE PUSH5 0xFFFFFFFFFF AND SWAP1 DUP3 ADD MSTORE PUSH1 0x60 ADD PUSH1 0x40 MLOAD DUP1 SWAP2 SUB SWAP1 LOG4 POP PUSH2 0x466 PUSH1 0x1 PUSH1 0x2 SSTORE JUMP JUMPDEST PUSH1 0x0 DUP3 DUP2 MSTORE PUSH1 0x20 DUP2 SWAP1 MSTORE PUSH1 0x40 SWAP1 KECCAK256 PUSH1 0x1 ADD SLOAD PUSH2 0xB5F DUP2 PUSH2 0xCFE JUMP JUMPDEST PUSH2 0x42D DUP4 DUP4 PUSH2 0xD9A JUMP JUMPDEST PUSH2 0xB71 PUSH2 0xF19 JUMP JUMPDEST PUSH1 0x0 DUP1 MLOAD PUSH1 0x20 PUSH2 0x1402 DUP4 CODECOPY DUP2 MLOAD SWAP2 MSTORE PUSH2 0xB89 DUP2 PUSH2 0xCFE JUMP JUMPDEST PUSH2 0xB91 PUSH2 0xE92 JUMP JUMPDEST PUSH1 0x0 DUP5 DUP2 MSTORE PUSH1 0x3 PUSH1 0x20 MSTORE PUSH1 0x40 SWAP1 KECCAK256 PUSH1 0x1 PUSH1 0x3 DUP3 ADD SLOAD PUSH1 0x1 PUSH1 0x28 SHL SWAP1 DIV PUSH1 0xFF AND PUSH1 0x4 DUP2 GT ISZERO PUSH2 0xBC1 JUMPI PUSH2 0xBC1 PUSH2 0x11A4 JUMP JUMPDEST EQ PUSH2 0xBDF JUMPI PUSH1 0x40 MLOAD PUSH4 0x8CD5EF9 PUSH1 0xE3 SHL DUP2 MSTORE PUSH1 0x4 ADD PUSH1 0x40 MLOAD DUP1 SWAP2 SUB SWAP1 REVERT JUMPDEST DUP3 DUP2 PUSH1 0x2 ADD SLOAD EQ ISZERO DUP1 PUSH2 0xBF0 JUMPI POP DUP3 ISZERO JUMPDEST ISZERO PUSH2 0xC0E JUMPI PUSH1 0x40 MLOAD PUSH4 0xD6A2FFD5 PUSH1 0xE0 SHL DUP2 MSTORE PUSH1 0x4 ADD PUSH1 0x40 MLOAD DUP1 SWAP2 SUB SWAP1 REVERT JUMPDEST PUSH1 0x3 DUP2 ADD SLOAD PUSH5 0xFFFFFFFFFF AND TIMESTAMP LT PUSH2 0xC39 JUMPI PUSH1 0x40 MLOAD PUSH4 0x506B27C5 PUSH1 0xE1 SHL DUP2 MSTORE PUSH1 0x4 ADD PUSH1 0x40 MLOAD DUP1 SWAP2 SUB SWAP1 REVERT JUMPDEST PUSH1 0x3 DUP2 ADD DUP1 SLOAD PUSH6 0xFF0000000000 NOT AND PUSH6 0x20000000000 OR SWAP1 SSTORE PUSH1 0x1 DUP2 ADD DUP1 SLOAD PUSH1 0x1 PUSH1 0x1 PUSH1 0xA0 SHL SUB DUP2 AND SWAP2 DUP3 SWAP1 SSTORE PUSH1 0x0 SWAP2 DUP3 MSTORE PUSH1 0x4 PUSH1 0x20 MSTORE PUSH1 0x40 DUP3 KECCAK256 DUP1 SLOAD PUSH1 0x1 PUSH1 0xA0 SHL SWAP1 SWAP3 DIV PUSH1 0x1 PUSH1 0x1 PUSH1 0x60 SHL SUB AND SWAP3 DUP4 SWAP3 PUSH2 0xC95 SWAP1 DUP5 SWAP1 PUSH2 0x1346 JUMP JUMPDEST SWAP1 SWAP2 SSTORE POP POP PUSH1 0x1 DUP3 ADD SLOAD PUSH2 0xCBC SWAP1 PUSH1 0x1 PUSH1 0x1 PUSH1 0xA0 SHL SUB AND DUP7 PUSH1 0x1 PUSH1 0x1 PUSH1 0x60 SHL SUB DUP5 AND PUSH2 0xEBA JUMP JUMPDEST PUSH1 0x40 MLOAD PUSH1 0x1 PUSH1 0x1 PUSH1 0xA0 SHL SUB DUP7 AND SWAP1 DUP8 SWAP1 PUSH32 0x89111F34ADAFCB7060C3C072EAFA91FEED3E90154074D498BBF3620002FE68BF SWAP1 PUSH1 0x0 SWAP1 LOG3 POP POP PUSH2 0x42D PUSH1 0x1 PUSH1 0x2 SSTORE JUMP JUMPDEST PUSH2 0x49D DUP2 CALLER PUSH2 0x1084 JUMP JUMPDEST PUSH1 0x0 PUSH2 0xD14 DUP4 DUP4 PUSH2 0x633 JUMP JUMPDEST PUSH2 0xD92 JUMPI PUSH1 0x0 DUP4 DUP2 MSTORE PUSH1 0x20 DUP2 DUP2 MSTORE PUSH1 0x40 DUP1 DUP4 KECCAK256 PUSH1 0x1 PUSH1 0x1 PUSH1 0xA0 SHL SUB DUP7 AND DUP5 MSTORE SWAP1 SWAP2 MSTORE SWAP1 KECCAK256 DUP1 SLOAD PUSH1 0xFF NOT AND PUSH1 0x1 OR SWAP1 SSTORE PUSH2 0xD4A CALLER SWAP1 JUMP JUMPDEST PUSH1 0x1 PUSH1 0x1 PUSH1 0xA0 SHL SUB AND DUP3 PUSH1 0x1 PUSH1 0x1 PUSH1 0xA0 SHL SUB AND DUP5 PUSH32 0x2F8788117E7EFF1D82E926EC794901D17C78024A50270940304540A733656F0D PUSH1 0x40 MLOAD PUSH1 0x40 MLOAD DUP1 SWAP2 SUB SWAP1 LOG4 POP PUSH1 0x1 PUSH2 0x324 JUMP JUMPDEST POP PUSH1 0x0 PUSH2 0x324 JUMP JUMPDEST PUSH1 0x0 PUSH2 0xDA6 DUP4 DUP4 PUSH2 0x633 JUMP JUMPDEST ISZERO PUSH2 0xD92 JUMPI PUSH1 0x0 DUP4 DUP2 MSTORE PUSH1 0x20 DUP2 DUP2 MSTORE PUSH1 0x40 DUP1 DUP4 KECCAK256 PUSH1 0x1 PUSH1 0x1 PUSH1 0xA0 SHL SUB DUP7 AND DUP1 DUP6 MSTORE SWAP3 MSTORE DUP1 DUP4 KECCAK256 DUP1 SLOAD PUSH1 0xFF NOT AND SWAP1 SSTORE MLOAD CALLER SWAP3 DUP7 SWAP2 PUSH32 0xF6391F5C32D9C69D2A47EA670B442974B53935D1EDC7FD64EB21E047A839171B SWAP2 SWAP1 LOG4 POP PUSH1 0x1 PUSH2 0x324 JUMP JUMPDEST PUSH2 0xE0D PUSH2 0x10C6 JUMP JUMPDEST PUSH1 0x1 DUP1 SLOAD PUSH1 0xFF NOT AND SWAP1 SSTORE PUSH32 0x5DB9EE0A495BF2E6FF9C91A7834C1BA4FDD244A5E8AA4E537BD38AEAE4B073AA CALLER JUMPDEST PUSH1 0x40 MLOAD PUSH1 0x1 PUSH1 0x1 PUSH1 0xA0 SHL SUB SWAP1 SWAP2 AND DUP2 MSTORE PUSH1 0x20 ADD PUSH1 0x40 MLOAD DUP1 SWAP2 SUB SWAP1 LOG1 JUMP JUMPDEST PUSH2 0xE5F PUSH2 0xF19 JUMP JUMPDEST PUSH1 0x1 DUP1 SLOAD PUSH1 0xFF NOT AND DUP2 OR SWAP1 SSTORE PUSH32 0x62E78CEA01BEE320CD4E420270B5EA74000D11B0C9F74754EBDBFC544B05A258 CALLER PUSH2 0xE3A JUMP JUMPDEST PUSH1 0x2 DUP1 SLOAD SUB PUSH2 0xEB4 JUMPI PUSH1 0x40 MLOAD PUSH4 0x3EE5AEB5 PUSH1 0xE0 SHL DUP2 MSTORE PUSH1 0x4 ADD PUSH1 0x40 MLOAD DUP1 SWAP2 SUB SWAP1 REVERT JUMPDEST PUSH1 0x2 DUP1 SSTORE JUMP JUMPDEST PUSH1 0x40 MLOAD PUSH1 0x1 PUSH1 0x1 PUSH1 0xA0 SHL SUB DUP4 DUP2 AND PUSH1 0x24 DUP4 ADD MSTORE PUSH1 0x44 DUP3 ADD DUP4 SWAP1 MSTORE PUSH2 0x466 SWAP2 DUP6 SWAP2 DUP3 AND SWAP1 PUSH4 0xA9059CBB SWAP1 PUSH1 0x64 ADD JUMPDEST PUSH1 0x40 MLOAD PUSH1 0x20 DUP2 DUP4 SUB SUB DUP2 MSTORE SWAP1 PUSH1 0x40 MSTORE SWAP2 POP PUSH1 0xE0 SHL PUSH1 0x20 DUP3 ADD DUP1 MLOAD PUSH1 0x1 PUSH1 0x1 PUSH1 0xE0 SHL SUB DUP4 DUP2 DUP4 AND OR DUP4 MSTORE POP POP POP POP PUSH2 0x10E9 JUMP JUMPDEST PUSH1 0x1 SLOAD PUSH1 0xFF AND ISZERO PUSH2 0xF3D JUMPI PUSH1 0x40 MLOAD PUSH4 0xD93C0665 PUSH1 0xE0 SHL DUP2 MSTORE PUSH1 0x4 ADD PUSH1 0x40 MLOAD DUP1 SWAP2 SUB SWAP1 REVERT JUMPDEST JUMP JUMPDEST DUP1 CALLDATALOAD PUSH2 0xF5E JUMPI PUSH1 0x40 MLOAD PUSH4 0xD6A2FFD5 PUSH1 0xE0 SHL DUP2 MSTORE PUSH1 0x4 ADD PUSH1 0x40 MLOAD DUP1 SWAP2 SUB SWAP1 REVERT JUMPDEST PUSH2 0xF6E PUSH1 0x80 DUP3 ADD PUSH1 0x60 DUP4 ADD PUSH2 0x139E JUMP JUMPDEST PUSH1 0x1 PUSH1 0x1 PUSH1 0x60 SHL SUB AND PUSH1 0x0 SUB PUSH2 0xF97 JUMPI PUSH1 0x40 MLOAD PUSH4 0x162908E3 PUSH1 0xE1 SHL DUP2 MSTORE PUSH1 0x4 ADD PUSH1 0x40 MLOAD DUP1 SWAP2 SUB SWAP1 REVERT JUMPDEST PUSH1 0x80 DUP2 ADD CALLDATALOAD PUSH2 0xFB9 JUMPI PUSH1 0x40 MLOAD PUSH4 0xD6A2FFD5 PUSH1 0xE0 SHL DUP2 MSTORE PUSH1 0x4 ADD PUSH1 0x40 MLOAD DUP1 SWAP2 SUB SWAP1 REVERT JUMPDEST TIMESTAMP PUSH2 0xFCA PUSH1 0xC0 DUP4 ADD PUSH1 0xA0 DUP5 ADD PUSH2 0x13C7 JUMP JUMPDEST PUSH5 0xFFFFFFFFFF AND GT PUSH2 0xFEE JUMPI PUSH1 0x40 MLOAD PUSH3 0xD36C85 PUSH1 0xE8 SHL DUP2 MSTORE PUSH1 0x4 ADD PUSH1 0x40 MLOAD DUP1 SWAP2 SUB SWAP1 REVERT JUMPDEST PUSH1 0x0 PUSH2 0x1000 PUSH1 0x40 DUP4 ADD PUSH1 0x20 DUP5 ADD PUSH2 0x128D JUMP JUMPDEST PUSH1 0x1 PUSH1 0x1 PUSH1 0xA0 SHL SUB AND EQ DUP1 PUSH2 0x102D JUMPI POP PUSH1 0x0 PUSH2 0x1022 PUSH1 0x60 DUP4 ADD PUSH1 0x40 DUP5 ADD PUSH2 0x128D JUMP JUMPDEST PUSH1 0x1 PUSH1 0x1 PUSH1 0xA0 SHL SUB AND EQ JUMPDEST ISZERO PUSH2 0x49D JUMPI PUSH1 0x40 MLOAD PUSH4 0xE6C4247B PUSH1 0xE0 SHL DUP2 MSTORE PUSH1 0x4 ADD PUSH1 0x40 MLOAD DUP1 SWAP2 SUB SWAP1 REVERT JUMPDEST PUSH1 0x40 MLOAD PUSH1 0x1 PUSH1 0x1 PUSH1 0xA0 SHL SUB DUP5 DUP2 AND PUSH1 0x24 DUP4 ADD MSTORE DUP4 DUP2 AND PUSH1 0x44 DUP4 ADD MSTORE PUSH1 0x64 DUP3 ADD DUP4 SWAP1 MSTORE PUSH2 0x42D SWAP2 DUP7 SWAP2 DUP3 AND SWAP1 PUSH4 0x23B872DD SWAP1 PUSH1 0x84 ADD PUSH2 0xEE7 JUMP JUMPDEST PUSH2 0x108E DUP3 DUP3 PUSH2 0x633 JUMP JUMPDEST PUSH2 0x10C2 JUMPI PUSH1 0x40 MLOAD PUSH4 0xE2517D3F PUSH1 0xE0 SHL DUP2 MSTORE PUSH1 0x1 PUSH1 0x1 PUSH1 0xA0 SHL SUB DUP3 AND PUSH1 0x4 DUP3 ADD MSTORE PUSH1 0x24 DUP2 ADD DUP4 SWAP1 MSTORE PUSH1 0x44 ADD JUMPDEST PUSH1 0x40 MLOAD DUP1 SWAP2 SUB SWAP1 REVERT JUMPDEST POP POP JUMP JUMPDEST PUSH1 0x1 SLOAD PUSH1 0xFF AND PUSH2 0xF3D JUMPI PUSH1 0x40 MLOAD PUSH4 0x8DFC202B PUSH1 0xE0 SHL DUP2 MSTORE PUSH1 0x4 ADD PUSH1 0x40 MLOAD DUP1 SWAP2 SUB SWAP1 REVERT JUMPDEST PUSH1 0x0 DUP1 PUSH1 0x20 PUSH1 0x0 DUP5 MLOAD PUSH1 0x20 DUP7 ADD PUSH1 0x0 DUP9 GAS CALL DUP1 PUSH2 0x110C JUMPI PUSH1 0x40 MLOAD RETURNDATASIZE PUSH1 0x0 DUP3 RETURNDATACOPY RETURNDATASIZE DUP2 REVERT JUMPDEST POP POP PUSH1 0x0 MLOAD RETURNDATASIZE SWAP2 POP DUP2 ISZERO PUSH2 0x1124 JUMPI DUP1 PUSH1 0x1 EQ ISZERO PUSH2 0x1131 JUMP JUMPDEST PUSH1 0x1 PUSH1 0x1 PUSH1 0xA0 SHL SUB DUP5 AND EXTCODESIZE ISZERO JUMPDEST ISZERO PUSH2 0x42D JUMPI PUSH1 0x40 MLOAD PUSH4 0x5274AFE7 PUSH1 0xE0 SHL DUP2 MSTORE PUSH1 0x1 PUSH1 0x1 PUSH1 0xA0 SHL SUB DUP6 AND PUSH1 0x4 DUP3 ADD MSTORE PUSH1 0x24 ADD PUSH2 0x10B9 JUMP JUMPDEST PUSH1 0x0 PUSH1 0x20 DUP3 DUP5 SUB SLT ISZERO PUSH2 0x116C JUMPI PUSH1 0x0 DUP1 REVERT JUMPDEST DUP2 CALLDATALOAD PUSH1 0x1 PUSH1 0x1 PUSH1 0xE0 SHL SUB NOT DUP2 AND DUP2 EQ PUSH2 0x1184 JUMPI PUSH1 0x0 DUP1 REVERT JUMPDEST SWAP4 SWAP3 POP POP POP JUMP JUMPDEST PUSH1 0x0 PUSH1 0x20 DUP3 DUP5 SUB SLT ISZERO PUSH2 0x119D JUMPI PUSH1 0x0 DUP1 REVERT JUMPDEST POP CALLDATALOAD SWAP2 SWAP1 POP JUMP JUMPDEST PUSH4 0x4E487B71 PUSH1 0xE0 SHL PUSH1 0x0 MSTORE PUSH1 0x21 PUSH1 0x4 MSTORE PUSH1 0x24 PUSH1 0x0 REVERT JUMPDEST PUSH1 0x5 DUP2 LT PUSH2 0x11D8 JUMPI PUSH4 0x4E487B71 PUSH1 0xE0 SHL PUSH1 0x0 MSTORE PUSH1 0x21 PUSH1 0x4 MSTORE PUSH1 0x24 PUSH1 0x0 REVERT JUMPDEST SWAP1 MSTORE JUMP JUMPDEST PUSH1 0x0 PUSH1 0xC0 DUP3 ADD SWAP1 POP PUSH1 0x1 DUP1 PUSH1 0xA0 SHL SUB DUP1 DUP5 MLOAD AND DUP4 MSTORE DUP1 PUSH1 0x20 DUP6 ADD MLOAD AND PUSH1 0x20 DUP5 ADD MSTORE POP PUSH1 0x1 PUSH1 0x1 PUSH1 0x60 SHL SUB PUSH1 0x40 DUP5 ADD MLOAD AND PUSH1 0x40 DUP4 ADD MSTORE PUSH1 0x60 DUP4 ADD MLOAD PUSH1 0x60 DUP4 ADD MSTORE PUSH5 0xFFFFFFFFFF PUSH1 0x80 DUP5 ADD MLOAD AND PUSH1 0x80 DUP4 ADD MSTORE PUSH1 0xA0 DUP4 ADD MLOAD PUSH2 0x123E PUSH1 0xA0 DUP5 ADD DUP3 PUSH2 0x11BA JUMP JUMPDEST POP SWAP3 SWAP2 POP POP JUMP JUMPDEST DUP1 CALLDATALOAD PUSH1 0x1 PUSH1 0x1 PUSH1 0xA0 SHL SUB DUP2 AND DUP2 EQ PUSH2 0x125C JUMPI PUSH1 0x0 DUP1 REVERT JUMPDEST SWAP2 SWAP1 POP JUMP JUMPDEST PUSH1 0x0 DUP1 PUSH1 0x40 DUP4 DUP6 SUB SLT ISZERO PUSH2 0x1274 JUMPI PUSH1 0x0 DUP1 REVERT JUMPDEST DUP3 CALLDATALOAD SWAP2 POP PUSH2 0x1284 PUSH1 0x20 DUP5 ADD PUSH2 0x1245 JUMP JUMPDEST SWAP1 POP SWAP3 POP SWAP3 SWAP1 POP JUMP JUMPDEST PUSH1 0x0 PUSH1 0x20 DUP3 DUP5 SUB SLT ISZERO PUSH2 0x129F JUMPI PUSH1 0x0 DUP1 REVERT JUMPDEST PUSH2 0x1184 DUP3 PUSH2 0x1245 JUMP JUMPDEST PUSH1 0x20 DUP2 ADD PUSH2 0x324 DUP3 DUP5 PUSH2 0x11BA JUMP JUMPDEST PUSH1 0x0 PUSH1 0xC0 DUP3 DUP5 SUB SLT ISZERO PUSH2 0x12C8 JUMPI PUSH1 0x0 DUP1 REVERT JUMPDEST POP SWAP2 SWAP1 POP JUMP JUMPDEST PUSH1 0x0 DUP1 PUSH2 0x180 DUP4 DUP6 SUB SLT ISZERO PUSH2 0x12E2 JUMPI PUSH1 0x0 DUP1 REVERT JUMPDEST PUSH2 0x12EC DUP5 DUP5 PUSH2 0x12B6 JUMP JUMPDEST SWAP2 POP PUSH2 0x1284 DUP5 PUSH1 0xC0 DUP6 ADD PUSH2 0x12B6 JUMP JUMPDEST PUSH1 0x0 DUP1 PUSH1 0x0 PUSH1 0x60 DUP5 DUP7 SUB SLT ISZERO PUSH2 0x1310 JUMPI PUSH1 0x0 DUP1 REVERT JUMPDEST DUP4 CALLDATALOAD SWAP3 POP PUSH2 0x1320 PUSH1 0x20 DUP6 ADD PUSH2 0x1245 JUMP JUMPDEST SWAP2 POP PUSH1 0x40 DUP5 ADD CALLDATALOAD SWAP1 POP SWAP3 POP SWAP3 POP SWAP3 JUMP JUMPDEST PUSH4 0x4E487B71 PUSH1 0xE0 SHL PUSH1 0x0 MSTORE PUSH1 0x11 PUSH1 0x4 MSTORE PUSH1 0x24 PUSH1 0x0 REVERT JUMPDEST DUP2 DUP2 SUB DUP2 DUP2 GT ISZERO PUSH2 0x324 JUMPI PUSH2 0x324 PUSH2 0x1330 JUMP JUMPDEST PUSH1 0x0 PUSH1 0x20 DUP3 DUP5 SUB SLT ISZERO PUSH2 0x136B JUMPI PUSH1 0x0 DUP1 REVERT JUMPDEST DUP2 CALLDATALOAD DUP1 ISZERO ISZERO DUP2 EQ PUSH2 0x1184 JUMPI PUSH1 0x0 DUP1 REVERT JUMPDEST PUSH1 0x0 PUSH1 0x20 DUP3 DUP5 SUB SLT ISZERO PUSH2 0x138D JUMPI PUSH1 0x0 DUP1 REVERT JUMPDEST DUP2 CALLDATALOAD PUSH1 0xFF DUP2 AND DUP2 EQ PUSH2 0x1184 JUMPI PUSH1 0x0 DUP1 REVERT JUMPDEST PUSH1 0x0 PUSH1 0x20 DUP3 DUP5 SUB SLT ISZERO PUSH2 0x13B0 JUMPI PUSH1 0x0 DUP1 REVERT JUMPDEST DUP2 CALLDATALOAD PUSH1 0x1 PUSH1 0x1 PUSH1 0x60 SHL SUB DUP2 AND DUP2 EQ PUSH2 0x1184 JUMPI PUSH1 0x0 DUP1 REVERT JUMPDEST PUSH1 0x0 PUSH1 0x20 DUP3 DUP5 SUB SLT ISZERO PUSH2 0x13D9 JUMPI PUSH1 0x0 DUP1 REVERT JUMPDEST DUP2 CALLDATALOAD PUSH5 0xFFFFFFFFFF DUP2 AND DUP2 EQ PUSH2 0x1184 JUMPI PUSH1 0x0 DUP1 REVERT JUMPDEST DUP1 DUP3 ADD DUP1 DUP3 GT ISZERO PUSH2 0x324 JUMPI PUSH2 0x324 PUSH2 0x1330 JUMP INVALID SWAP8 PUSH7 0x7070C54EF182B0 CREATE2 DUP6 DUP12 SUB 0x4B 0xEA 0xC1 0xB6 RETURN ADDMOD SWAP11 LOG2 0xD3 XOR DUP12 0xB1 0xE8 SWAP3 SWAP16 0x4F 0xA9 0xB9 0x29 LOG2 PUSH5 0x6970667358 0x22 SLT KECCAK256 0x4D SELFDESTRUCT 0x4E 0x1E TLOAD SELFDESTRUCT SWAP2 CALLVALUE 0xDA ADDMOD 0xBD POP SLOAD 0xC6 KECCAK256 0xB2 PUSH32 0x3F0B0F11DA2E95F9EE5496299C04BB64736F6C63430008180033000000000000 "},"methodIdentifiers":{"DEFAULT_ADMIN_ROLE()":"a217fddf","OPERATOR_ROLE()":"f5b541a6","PAUSER_ROLE()":"e63ab1e9","claimTransfer(bytes32,address,bytes32)":"e5b10d12","createTransfer((bytes32,address,address,uint96,bytes32,uint40),(bool,uint256,uint256,uint8,bytes32,bytes32))":"c9f19f92","expireTransfer(bytes32)":"bb10065c","getRoleAdmin(bytes32)":"248a9ca3","getTransfer(bytes32)":"260958a5","grantRole(bytes32,address)":"2f2ff15d","hasRole(bytes32,address)":"91d14854","lockedBalance(address)":"9ae697bf","pause()":"8456cb59","paused()":"5c975abb","refundTransfer(bytes32,address)":"8ed90a9e","renounceRole(bytes32,address)":"36568abe","revokeRole(bytes32,address)":"d547741f","supportsInterface(bytes4)":"01ffc9a7","transferStatus(bytes32)":"bfd79030","unpause()":"3f4ba83a"}}}}}