{
  "_format": "hh-sol-artifact-1",
  "contractName": "MockUSDC",
  "sourceName": "contracts/mocks/MockUSDC.sol",
  "abi": [
    {
      "inputs": [],
      "stateMutability": "nonpayable",
      "type": "constructor"
    },
    {
      "inputs": [],
      "name": "ECDSAInvalidSignature",
      "type": "error"
    },
    {
      "inputs": [
        {
          "internalType": "uint256",
          "name": "length",
          "type": "uint256"
        }
      ],
      "name": "ECDSAInvalidSignatureLength",
      "type": "error"
    },
    {
      "inputs": [
        {
          "internalType": "bytes32",
          "name": "s",
          "type": "bytes32"
        }
      ],
      "name": "ECDSAInvalidSignatureS",
      "type": "error"
    },
    {
      "inputs": [
        {
          "internalType": "address",
          "name": "spender",
          "type": "address"
        },
        {
          "internalType": "uint256",
          "name": "allowance",
          "type": "uint256"
        },
        {
          "internalType": "uint256",
          "name": "needed",
          "type": "uint256"
        }
      ],
      "name": "ERC20InsufficientAllowance",
      "type": "error"
    },
    {
      "inputs": [
        {
          "internalType": "address",
          "name": "sender",
          "type": "address"
        },
        {
          "internalType": "uint256",
          "name": "balance",
          "type": "uint256"
        },
        {
          "internalType": "uint256",
          "name": "needed",
          "type": "uint256"
        }
      ],
      "name": "ERC20InsufficientBalance",
      "type": "error"
    },
    {
      "inputs": [
        {
          "internalType": "address",
          "name": "approver",
          "type": "address"
        }
      ],
      "name": "ERC20InvalidApprover",
      "type": "error"
    },
    {
      "inputs": [
        {
          "internalType": "address",
          "name": "receiver",
          "type": "address"
        }
      ],
      "name": "ERC20InvalidReceiver",
      "type": "error"
    },
    {
      "inputs": [
        {
          "internalType": "address",
          "name": "sender",
          "type": "address"
        }
      ],
      "name": "ERC20InvalidSender",
      "type": "error"
    },
    {
      "inputs": [
        {
          "internalType": "address",
          "name": "spender",
          "type": "address"
        }
      ],
      "name": "ERC20InvalidSpender",
      "type": "error"
    },
    {
      "inputs": [
        {
          "internalType": "uint256",
          "name": "deadline",
          "type": "uint256"
        }
      ],
      "name": "ERC2612ExpiredSignature",
      "type": "error"
    },
    {
      "inputs": [
        {
          "internalType": "address",
          "name": "signer",
          "type": "address"
        },
        {
          "internalType": "address",
          "name": "owner",
          "type": "address"
        }
      ],
      "name": "ERC2612InvalidSigner",
      "type": "error"
    },
    {
      "inputs": [
        {
          "internalType": "address",
          "name": "account",
          "type": "address"
        },
        {
          "internalType": "uint256",
          "name": "currentNonce",
          "type": "uint256"
        }
      ],
      "name": "InvalidAccountNonce",
      "type": "error"
    },
    {
      "inputs": [],
      "name": "InvalidShortString",
      "type": "error"
    },
    {
      "inputs": [
        {
          "internalType": "string",
          "name": "str",
          "type": "string"
        }
      ],
      "name": "StringTooLong",
      "type": "error"
    },
    {
      "anonymous": false,
      "inputs": [
        {
          "indexed": true,
          "internalType": "address",
          "name": "owner",
          "type": "address"
        },
        {
          "indexed": true,
          "internalType": "address",
          "name": "spender",
          "type": "address"
        },
        {
          "indexed": false,
          "internalType": "uint256",
          "name": "value",
          "type": "uint256"
        }
      ],
      "name": "Approval",
      "type": "event"
    },
    {
      "anonymous": false,
      "inputs": [],
      "name": "EIP712DomainChanged",
      "type": "event"
    },
    {
      "anonymous": false,
      "inputs": [
        {
          "indexed": true,
          "internalType": "address",
          "name": "from",
          "type": "address"
        },
        {
          "indexed": true,
          "internalType": "address",
          "name": "to",
          "type": "address"
        },
        {
          "indexed": false,
          "internalType": "uint256",
          "name": "value",
          "type": "uint256"
        }
      ],
      "name": "Transfer",
      "type": "event"
    },
    {
      "inputs": [],
      "name": "DOMAIN_SEPARATOR",
      "outputs": [
        {
          "internalType": "bytes32",
          "name": "",
          "type": "bytes32"
        }
      ],
      "stateMutability": "view",
      "type": "function"
    },
    {
      "inputs": [
        {
          "internalType": "address",
          "name": "owner",
          "type": "address"
        },
        {
          "internalType": "address",
          "name": "spender",
          "type": "address"
        }
      ],
      "name": "allowance",
      "outputs": [
        {
          "internalType": "uint256",
          "name": "",
          "type": "uint256"
        }
      ],
      "stateMutability": "view",
      "type": "function"
    },
    {
      "inputs": [
        {
          "internalType": "address",
          "name": "spender",
          "type": "address"
        },
        {
          "internalType": "uint256",
          "name": "value",
          "type": "uint256"
        }
      ],
      "name": "approve",
      "outputs": [
        {
          "internalType": "bool",
          "name": "",
          "type": "bool"
        }
      ],
      "stateMutability": "nonpayable",
      "type": "function"
    },
    {
      "inputs": [
        {
          "internalType": "address",
          "name": "account",
          "type": "address"
        }
      ],
      "name": "balanceOf",
      "outputs": [
        {
          "internalType": "uint256",
          "name": "",
          "type": "uint256"
        }
      ],
      "stateMutability": "view",
      "type": "function"
    },
    {
      "inputs": [],
      "name": "decimals",
      "outputs": [
        {
          "internalType": "uint8",
          "name": "",
          "type": "uint8"
        }
      ],
      "stateMutability": "pure",
      "type": "function"
    },
    {
      "inputs": [],
      "name": "eip712Domain",
      "outputs": [
        {
          "internalType": "bytes1",
          "name": "fields",
          "type": "bytes1"
        },
        {
          "internalType": "string",
          "name": "name",
          "type": "string"
        },
        {
          "internalType": "string",
          "name": "version",
          "type": "string"
        },
        {
          "internalType": "uint256",
          "name": "chainId",
          "type": "uint256"
        },
        {
          "internalType": "address",
          "name": "verifyingContract",
          "type": "address"
        },
        {
          "internalType": "bytes32",
          "name": "salt",
          "type": "bytes32"
        },
        {
          "internalType": "uint256[]",
          "name": "extensions",
          "type": "uint256[]"
        }
      ],
      "stateMutability": "view",
      "type": "function"
    },
    {
      "inputs": [
        {
          "internalType": "address",
          "name": "to",
          "type": "address"
        },
        {
          "internalType": "uint256",
          "name": "amount",
          "type": "uint256"
        }
      ],
      "name": "mint",
      "outputs": [],
      "stateMutability": "nonpayable",
      "type": "function"
    },
    {
      "inputs": [],
      "name": "name",
      "outputs": [
        {
          "internalType": "string",
          "name": "",
          "type": "string"
        }
      ],
      "stateMutability": "view",
      "type": "function"
    },
    {
      "inputs": [
        {
          "internalType": "address",
          "name": "owner",
          "type": "address"
        }
      ],
      "name": "nonces",
      "outputs": [
        {
          "internalType": "uint256",
          "name": "",
          "type": "uint256"
        }
      ],
      "stateMutability": "view",
      "type": "function"
    },
    {
      "inputs": [
        {
          "internalType": "address",
          "name": "owner",
          "type": "address"
        },
        {
          "internalType": "address",
          "name": "spender",
          "type": "address"
        },
        {
          "internalType": "uint256",
          "name": "value",
          "type": "uint256"
        },
        {
          "internalType": "uint256",
          "name": "deadline",
          "type": "uint256"
        },
        {
          "internalType": "uint8",
          "name": "v",
          "type": "uint8"
        },
        {
          "internalType": "bytes32",
          "name": "r",
          "type": "bytes32"
        },
        {
          "internalType": "bytes32",
          "name": "s",
          "type": "bytes32"
        }
      ],
      "name": "permit",
      "outputs": [],
      "stateMutability": "nonpayable",
      "type": "function"
    },
    {
      "inputs": [],
      "name": "symbol",
      "outputs": [
        {
          "internalType": "string",
          "name": "",
          "type": "string"
        }
      ],
      "stateMutability": "view",
      "type": "function"
    },
    {
      "inputs": [],
      "name": "totalSupply",
      "outputs": [
        {
          "internalType": "uint256",
          "name": "",
          "type": "uint256"
        }
      ],
      "stateMutability": "view",
      "type": "function"
    },
    {
      "inputs": [
        {
          "internalType": "address",
          "name": "to",
          "type": "address"
        },
        {
          "internalType": "uint256",
          "name": "value",
          "type": "uint256"
        }
      ],
      "name": "transfer",
      "outputs": [
        {
          "internalType": "bool",
          "name": "",
          "type": "bool"
        }
      ],
      "stateMutability": "nonpayable",
      "type": "function"
    },
    {
      "inputs": [
        {
          "internalType": "address",
          "name": "from",
          "type": "address"
        },
        {
          "internalType": "address",
          "name": "to",
          "type": "address"
        },
        {
          "internalType": "uint256",
          "name": "value",
          "type": "uint256"
        }
      ],
      "name": "transferFrom",
      "outputs": [
        {
          "internalType": "bool",
          "name": "",
          "type": "bool"
        }
      ],
      "stateMutability": "nonpayable",
      "type": "function"
    }
  ],
  "bytecode": "0x6101606040523480156200001257600080fd5b50604051806040016040528060098152602001684d6f636b205553444360b81b81525080604051806040016040528060018152602001603160f81b815250604051806040016040528060098152602001684d6f636b205553444360b81b815250604051806040016040528060058152602001646d5553444360d81b8152508160039081620000a1919062000432565b506004620000b0828262000432565b50620000c2915083905060056200019a565b61012052620000d38160066200019a565b61014052815160208084019190912060e052815190820120610100524660a0526200016160e05161010051604080517f8b73c3c69bb8fe3d512ecc4cf759cc79239f7b179b0ffacaa9a75d522b39400f60208201529081019290925260608201524660808201523060a082015260009060c00160405160208183030381529060405280519060200120905090565b60805250503060c0525062000194336200017e6006600a62000611565b6200018e90633b9aca0062000629565b620001d3565b620006cf565b6000602083511015620001ba57620001b28362000215565b9050620001cd565b81620001c7848262000432565b5060ff90505b92915050565b6001600160a01b038216620002035760405163ec442f0560e01b8152600060048201526024015b60405180910390fd5b620002116000838362000258565b5050565b600080829050601f8151111562000243578260405163305a27a960e01b8152600401620001fa919062000643565b8051620002508262000694565b179392505050565b6001600160a01b038316620002875780600260008282546200027b9190620006b9565b90915550620002fb9050565b6001600160a01b03831660009081526020819052604090205481811015620002dc5760405163391434e360e21b81526001600160a01b03851660048201526024810182905260448101839052606401620001fa565b6001600160a01b03841660009081526020819052604090209082900390555b6001600160a01b038216620003195760028054829003905562000338565b6001600160a01b03821660009081526020819052604090208054820190555b816001600160a01b0316836001600160a01b03167fddf252ad1be2c89b69c2b068fc378daa952ba7f163c4a11628f55a4df523b3ef836040516200037e91815260200190565b60405180910390a3505050565b634e487b7160e01b600052604160045260246000fd5b600181811c90821680620003b657607f821691505b602082108103620003d757634e487b7160e01b600052602260045260246000fd5b50919050565b601f8211156200042d576000816000526020600020601f850160051c81016020861015620004085750805b601f850160051c820191505b81811015620004295782815560010162000414565b5050505b505050565b81516001600160401b038111156200044e576200044e6200038b565b62000466816200045f8454620003a1565b84620003dd565b602080601f8311600181146200049e5760008415620004855750858301515b600019600386901b1c1916600185901b17855562000429565b600085815260208120601f198616915b82811015620004cf57888601518255948401946001909101908401620004ae565b5085821015620004ee5787850151600019600388901b60f8161c191681555b5050505050600190811b01905550565b634e487b7160e01b600052601160045260246000fd5b600181815b8085111562000555578160001904821115620005395762000539620004fe565b808516156200054757918102915b93841c939080029062000519565b509250929050565b6000826200056e57506001620001cd565b816200057d57506000620001cd565b8160018114620005965760028114620005a157620005c1565b6001915050620001cd565b60ff841115620005b557620005b5620004fe565b50506001821b620001cd565b5060208310610133831016604e8410600b8410161715620005e6575081810a620001cd565b620005f2838362000514565b8060001904821115620006095762000609620004fe565b029392505050565b60006200062260ff8416836200055d565b9392505050565b8082028115828204841417620001cd57620001cd620004fe565b60006020808352835180602085015260005b81811015620006735785810183015185820160400152820162000655565b506000604082860101526040601f19601f8301168501019250505092915050565b80516020808301519190811015620003d75760001960209190910360031b1b16919050565b80820180821115620001cd57620001cd620004fe565b60805160a05160c05160e051610100516101205161014051610f6e6200072a600039600061077101526000610744015260006106b60152600061068e015260006105e9015260006106130152600061063d0152610f6e6000f3fe608060405234801561001057600080fd5b50600436106100ea5760003560e01c806370a082311161008c57806395d89b411161006657806395d89b41146101d8578063a9059cbb146101e0578063d505accf146101f3578063dd62ed3e1461020657600080fd5b806370a08231146101815780637ecebe00146101aa57806384b0196e146101bd57600080fd5b806323b872dd116100c857806323b872dd14610142578063313ce567146101555780633644e5151461016457806340c10f191461016c57600080fd5b806306fdde03146100ef578063095ea7b31461010d57806318160ddd14610130575b600080fd5b6100f761023f565b6040516101049190610cd1565b60405180910390f35b61012061011b366004610d07565b6102d1565b6040519015158152602001610104565b6002545b604051908152602001610104565b610120610150366004610d31565b6102eb565b60405160068152602001610104565b61013461030f565b61017f61017a366004610d07565b61031e565b005b61013461018f366004610d6d565b6001600160a01b031660009081526020819052604090205490565b6101346101b8366004610d6d565b61032c565b6101c561034a565b6040516101049796959493929190610d88565b6100f7610390565b6101206101ee366004610d07565b61039f565b61017f610201366004610e21565b6103ad565b610134610214366004610e94565b6001600160a01b03918216600090815260016020908152604080832093909416825291909152205490565b60606003805461024e90610ec7565b80601f016020809104026020016040519081016040528092919081815260200182805461027a90610ec7565b80156102c75780601f1061029c576101008083540402835291602001916102c7565b820191906000526020600020905b8154815290600101906020018083116102aa57829003601f168201915b5050505050905090565b6000336102df8185856104ec565b60019150505b92915050565b6000336102f98582856104fe565b61030485858561057d565b506001949350505050565b60006103196105dc565b905090565b6103288282610707565b5050565b6001600160a01b0381166000908152600760205260408120546102e5565b60006060806000806000606061035e61073d565b61036661076a565b60408051600080825260208201909252600f60f81b9b939a50919850469750309650945092509050565b60606004805461024e90610ec7565b6000336102df81858561057d565b834211156103d65760405163313c898160e11b8152600481018590526024015b60405180910390fd5b60007f6e71edae12b1b97f4d1f60370fef10105fa2faae0126114a169c64845d6126c98888886104238c6001600160a01b0316600090815260076020526040902080546001810190915590565b6040805160208101969096526001600160a01b0394851690860152929091166060840152608083015260a082015260c0810186905260e001604051602081830303815290604052805190602001209050600061047e82610797565b9050600061048e828787876107c4565b9050896001600160a01b0316816001600160a01b0316146104d5576040516325c0072360e11b81526001600160a01b0380831660048301528b1660248201526044016103cd565b6104e08a8a8a6104ec565b50505050505050505050565b6104f983838360016107f2565b505050565b6001600160a01b03838116600090815260016020908152604080832093861683529290522054600019811015610577578181101561056857604051637dc7a0d960e11b81526001600160a01b038416600482015260248101829052604481018390526064016103cd565b610577848484840360006107f2565b50505050565b6001600160a01b0383166105a757604051634b637e8f60e11b8152600060048201526024016103cd565b6001600160a01b0382166105d15760405163ec442f0560e01b8152600060048201526024016103cd565b6104f98383836108c7565b6000306001600160a01b037f00000000000000000000000000000000000000000000000000000000000000001614801561063557507f000000000000000000000000000000000000000000000000000000000000000046145b1561065f57507f000000000000000000000000000000000000000000000000000000000000000090565b610319604080517f8b73c3c69bb8fe3d512ecc4cf759cc79239f7b179b0ffacaa9a75d522b39400f60208201527f0000000000000000000000000000000000000000000000000000000000000000918101919091527f000000000000000000000000000000000000000000000000000000000000000060608201524660808201523060a082015260009060c00160405160208183030381529060405280519060200120905090565b6001600160a01b0382166107315760405163ec442f0560e01b8152600060048201526024016103cd565b610328600083836108c7565b60606103197f000000000000000000000000000000000000000000000000000000000000000060056109f1565b60606103197f000000000000000000000000000000000000000000000000000000000000000060066109f1565b60006102e56107a46105dc565b8360405161190160f01b8152600281019290925260228201526042902090565b6000806000806107d688888888610a9c565b9250925092506107e68282610b6b565b50909695505050505050565b6001600160a01b03841661081c5760405163e602df0560e01b8152600060048201526024016103cd565b6001600160a01b03831661084657604051634a1406b160e11b8152600060048201526024016103cd565b6001600160a01b038085166000908152600160209081526040808320938716835292905220829055801561057757826001600160a01b0316846001600160a01b03167f8c5be1e5ebec7d5bd14f71427d1e84f3dd0314c0f7b2291e5b200ac8c7c3b925846040516108b991815260200190565b60405180910390a350505050565b6001600160a01b0383166108f25780600260008282546108e79190610f01565b909155506109649050565b6001600160a01b038316600090815260208190526040902054818110156109455760405163391434e360e21b81526001600160a01b038516600482015260248101829052604481018390526064016103cd565b6001600160a01b03841660009081526020819052604090209082900390555b6001600160a01b0382166109805760028054829003905561099f565b6001600160a01b03821660009081526020819052604090208054820190555b816001600160a01b0316836001600160a01b03167fddf252ad1be2c89b69c2b068fc378daa952ba7f163c4a11628f55a4df523b3ef836040516109e491815260200190565b60405180910390a3505050565b606060ff8314610a0b57610a0483610c24565b90506102e5565b818054610a1790610ec7565b80601f0160208091040260200160405190810160405280929190818152602001828054610a4390610ec7565b8015610a905780601f10610a6557610100808354040283529160200191610a90565b820191906000526020600020905b815481529060010190602001808311610a7357829003601f168201915b505050505090506102e5565b600080807f7fffffffffffffffffffffffffffffff5d576e7357a4501ddfe92f46681b20a0841115610ad75750600091506003905082610b61565b604080516000808252602082018084528a905260ff891692820192909252606081018790526080810186905260019060a0016020604051602081039080840390855afa158015610b2b573d6000803e3d6000fd5b5050604051601f1901519150506001600160a01b038116610b5757506000925060019150829050610b61565b9250600091508190505b9450945094915050565b6000826003811115610b7f57610b7f610f22565b03610b88575050565b6001826003811115610b9c57610b9c610f22565b03610bba5760405163f645eedf60e01b815260040160405180910390fd5b6002826003811115610bce57610bce610f22565b03610bef5760405163fce698f760e01b8152600481018290526024016103cd565b6003826003811115610c0357610c03610f22565b03610328576040516335e2f38360e21b8152600481018290526024016103cd565b60606000610c3183610c63565b604080516020808252818301909252919250600091906020820181803683375050509182525060208101929092525090565b600060ff8216601f8111156102e557604051632cd44ac360e21b815260040160405180910390fd5b6000815180845260005b81811015610cb157602081850181015186830182015201610c95565b506000602082860101526020601f19601f83011685010191505092915050565b602081526000610ce46020830184610c8b565b9392505050565b80356001600160a01b0381168114610d0257600080fd5b919050565b60008060408385031215610d1a57600080fd5b610d2383610ceb565b946020939093013593505050565b600080600060608486031215610d4657600080fd5b610d4f84610ceb565b9250610d5d60208501610ceb565b9150604084013590509250925092565b600060208284031215610d7f57600080fd5b610ce482610ceb565b60ff60f81b881681526000602060e06020840152610da960e084018a610c8b565b8381036040850152610dbb818a610c8b565b606085018990526001600160a01b038816608086015260a0850187905284810360c08601528551808252602080880193509091019060005b81811015610e0f57835183529284019291840191600101610df3565b50909c9b505050505050505050505050565b600080600080600080600060e0888a031215610e3c57600080fd5b610e4588610ceb565b9650610e5360208901610ceb565b95506040880135945060608801359350608088013560ff81168114610e7757600080fd5b9699959850939692959460a0840135945060c09093013592915050565b60008060408385031215610ea757600080fd5b610eb083610ceb565b9150610ebe60208401610ceb565b90509250929050565b600181811c90821680610edb57607f821691505b602082108103610efb57634e487b7160e01b600052602260045260246000fd5b50919050565b808201808211156102e557634e487b7160e01b600052601160045260246000fd5b634e487b7160e01b600052602160045260246000fdfea2646970667358221220b594b61387b2aab5b432c2c886bd7b8c56d4a1b759e5f59a03d1c5783570b9de64736f6c63430008180033",
  "linkReferences": {},
  "deployedLinkReferences": {}
}